:020000041000EA
:101000002009002019100010D5100010D710001072
:1010100000000080000000800248854602488047AA
:1010200012E0000020090020D1100010002A0AD090
:10103000042A00D20422920803680B60013A02D00D
:1010400004300431F8E7704711481249124AFFF79B
:10105000EDFF12481249134AFFF7E8FF12481349FF
:10106000134AFFF7E3FF13481349002906D0890804
:1010700000220260013901D00430FAE70F488546AA
:101080000F4880470F488047002000210E4A9746AE
:10109000201A00104009002004000000241A00104B
:1010A0004409002000000000101900100C0000206E
:1010B00010010000200900201C0000002009002071
:1010C00005110010CD100010A1120010C04670478D
:1010D000C0467047FEE7FEE7FEE7FEE7FEE7FEE7F5
:1010E000FEE7FEE7FEE7FEE7FEE7FEE7FEE7FEE7D8
:1010F000FEE7FEE7FEE7FEE7FEE7FEE7FEE7FEE7C8
:10110000FEE7FEE780B500AF00F002F8BD4680BD07
:1011100080B582B000AF114B1A68FF231B02134049
:101120001B0A7B600D4B1A68FF2313403B607B68F2
:10113000002B0CD07B681A023B68D3180848191C96
:1011400000F026FB031C5A00064B1A6002E0054B18
:10115000054A1A60BD4602B080BDC046000301408A
:10116000000024F4380900200048E80180B582B06E
:1011700000AF021CFB1D1A70084B084A5169084A4F
:101180000A405A61054B054A5169FA1D127812024C
:101190000A435A61BD4602B080BDC046000004400B
:1011A000FF07FFFF80B500AF024B20225A60BD460B
:1011B00080BDC0460000044080B500AF024B034A2A
:1011C0005A60BD4680BDC04600000440200020009B
:1011D00080B582B000AF021CFB1D1A70084B084A94
:1011E0005169084A0A405A61054B054A5169FA1D7E
:1011F000127812040A435A61BD4602B080BDC0464F
:1012000000000440FFFF07FF80B500AF044B044A15
:10121000126C8021C9040A431A64BD4680BDC046D1
:101220000000044080B500AF034B5A6A40231340CE
:10123000181CBD4680BDC0460000044080B582B089
:1012400000AF021CFB1D1A70074B074A5269F821B8
:101250008A435A61044B044A5169FA1D12780A43C1
:101260005A61BD4602B080BD0001044080B500AFA8
:10127000044B044A126C8021C9020A431A64BD4619
:1012800080BDC0460001044080B500AF034B5A6AE0
:1012900010231340181CBD4680BDC0460001044009
:1012A00080B58AB000AF00F061FAC020FFF75EFFA2
:1012B000FFF778FF1020FFF78BFFFFF7A5FFFFF781
:1012C000B1FF1020FFF7BAFFFFF7D0FFFFF7DCFFF9
:1012D000FFF7A8FF021C3B1C27331A703B1C263368
:1012E00000221A7000233B620023FB610023BB61D4
:1012F00000237B6164237B6000E0C046FB6901330F
:10130000FB61BB690133BB6100233B610023FB60D0
:101310000023BB600EE0FFF785FF031C002B03D00A
:101320003B6901333B6102E0FB680133FB60BB6852
:101330000133BB60BA687B689A42ECDBFB68002B28
:1013400020DD3B1C27331B78002B16D03B1C26339B
:1013500001221A70FFF798FF031C002B08D0FB69CD
:10136000DB00181C0A2100F061FA031C7B6102E01B
:10137000FB695B107B610023FB613B1C2733002270
:101380001A7006E03B69002B03DD3B1C273301226A
:101390001A70BA697B699A42AFDB0023BB613B1CC0
:1013A00026331B78002B03D13B6A01333B6201E0FB
:1013B00000233B623B1C263300221A703B6A012B40
:1013C00004DD01233B62FFF7EDFE96E7FFF7F4FE35
:1013D00093E7C04680B500AF0F4B1B68002B13D1BD
:1013E0000E4B1B68181C072100F016FA0B1C5A1C28
:1013F000094B1A60084B1B689A00074B1A60074B91
:101400001B685A1C054B1A60034B1B685A1E024B83
:101410001A60BD4680BDC046200900202409002076
:1014200080B584B000AFF860B9607A6001235B4298
:10143000181CBD4604B080BD80B584B000AFF86014
:10144000B9607A6001235B42181CBD4604B080BDC0
:1014500080B584B000AFF860B9607A600023181CD2
:10146000BD4604B080BDC04680B584B000AFF86012
:10147000B9607A6001235B42181CBD4604B080BD90
:1014800080B500AF01235B42181CBD4680BDC0463D
:1014900080B582B000AF786039603B68002B02D025
:1014A00001235B4201E002235B42181CBD4602B0EF
:1014B00080BDC04680B582B000AF786039607A6880
:1014C0003B689A4202D101235B4201E002235B4266
:1014D000181CBD4602B080BD80B582B000AF7860F8
:1014E00001235B42181CBD4602B080BD80B586B0AA
:1014F00000AF7860144B7B61144B1B68002B08D144
:10150000124B134A1A60114B1A687B69D218114B9F
:101510001A600E4B1B683B610C4B1B681A1C7B68E6
:10152000D318073307229343FB600A4B1B68FA6802
:101530009A4201D3002303E0044BFA681A603B6926
:10154000181CBD4606B080BDB8360000300900202A
:10155000480900203409002080B582B000AF7860CF
:1015600001235B42181CBD4602B080BD80B582B02D
:1015700000AF786001235B42181CBD4602B080BDFD
:1015800080B582B000AF7860396001235B42181CDF
:10159000BD4602B080BDC04680B500AF01235B42AE
:1015A000181CBD4680BDC04680B500AF01235B421C
:1015B000181CBD4680BDC04680B582B000AF7860C3
:1015C000FEE7C04680B500AFBD4680BD80B582B0A5
:1015D00000AF786001235B42181CBD4602B080BD9D
:1015E00080B582B000AF021CFB1D1A70064BFA1DBD
:1015F0001278111C1F220A400121081C9040021C75
:101600001A60BD4602B080BD00E100E0B0B582B016
:1016100000AF021C3960FB1D1A70FB1D1B787F2B6D
:1016200032D93049FB1D1B781A1C0F231340083B8D
:1016300098082C4AFB1D1B781C1C0F232340083BD9
:101640009B0806339B00D3185B68FA1D1278141CA4
:1016500003222240D200FF24251C95402A1CD2439D
:101660001A403B689C01FF231C40FB1D1B781D1C7E
:1016700003232B40DB00251C9D402B1C1A43831D9C
:101680009B00CB185A6029E0174BFA1D127852B212
:1016900092081549F81D007840B28008C0308000DB
:1016A0004158F81D0078041C03202040C000FF248E
:1016B000251C8540281CC043084039688C01FF2147
:1016C0000C40F91D09780D1C03212940C900251C77
:1016D0008D40291C0143C0329200D150BD4602B05A
:1016E000B0BDC04600ED00E000E100E080B582B092
:1016F00000AF78607B681B78DBB25BB2181CFFF729
:101700006FFFBD4602B080BD80B582B000AF002340
:101710007B6009E0074B7A689200D358181C00F0F0
:101720000BF87B6801337B607B68002BF2D0BD46F1
:1017300002B080BD4009002080B582B000AF786063
:101740007B681B78DAB27B685B7852B2101C191C7C
:10175000FFF75CFF7B68DB78012B03D17B68181CEB
:10176000FFF7C4FFBD4602B080BDC04680B500AFE4
:1017700000F00AF8FFF7C8FF00F002F8BD4680BD90
:1017800080B500AFBD4680BD80B500AFBD4680BD11
:10179000002934D00123002210B488422CD3012424
:1017A0002407A14204D2814202D209011B01F8E7B9
:1017B000E400A14204D2814202D249005B00F8E772
:1017C000884201D3401A1A434C08A04202D3001B9E
:1017D0005C0822438C08A04202D3001B9C082243D1
:1017E000CC08A04202D3001BDC082243002803D00F
:1017F0001B0901D00909E3E7101C10BC7047002841
:1018000001D00020C04307B4024802A14018029052
:1018100003BDC046D90000000029F0D003B5FFF792
:10182000B9FF0EBC4243891A1847C046002941D06F
:1018300010B4041C4C40A44601230022002900D50A
:101840004942002800D5404288422CD30124240775
:10185000A14204D2814202D209011B01F8E7E4004F
:10186000A14204D2814202D249005B00F8E78842DB
:1018700001D3401A1A434C08A04202D3001B5C0853
:1018800022438C08A04202D3001B9C082243CC08B0
:10189000A04202D3001BDC082243002803D01B090E
:1018A00001D00909E3E7101C6446002C00D5404232
:1018B00010BC7047002806D003DB0020C04340085E
:1018C00001E08020000607B4024802A140180290FF
:1018D00003BDC046190000000029EBD003B5FFF797
:1018E000A7FF0EBC4243891A1847C0467047C0463E
:1018F00028F7FF7F0100000050F7FF7F0100000084
:041900001A030000C6
:101910002C48874600000000000000000000000086
:1019200000000000000000000000000000000000B7
:101930002548874600000000000000002348874635
:1019400023488746234887462348874623488746B7
:1019500023488746234887462348874623488746A7
:10196000000000000000000021488746214887460B
:10197000214887462148874621488746214887468F
:1019800021488746214887460000000000000000EB
:1019900000000000000000001D4887461D488746E3
:1019A0001D4887461D4887460000000000000000D3
:1019B0000000000000000000000000000000000027
:1019C00000000000D7100010D9100010DB1000102C
:1019D000DD100010DF100010E1100010E310001007
:1019E000E5100010E7100010E9100010EB100010D7
:1019F000F9100010FB100010FD100010FF10001077
:101A00000111001003110010ED100010EF10001074
:101A1000F1100010F3100010F5100010F710001076
:041A20000019001099
:0400000510001019BE
:00000001FF
