:020000041000EA
:101000002009002019100010D5100010D710001072
:1010100000040000000000000248854602488047A6
:1010200012E0000020090020D1100010002A0AD090
:10103000042A00D20422920803680B60013A02D00D
:1010400004300431F8E7704711481249124AFFF79B
:10105000EDFF12481249134AFFF7E8FF12481349FF
:10106000134AFFF7E3FF13481349002906D0890804
:1010700000220260013901D00430FAE70F488546AA
:101080000F4880470F488047002000210E4A9746AE
:10109000B03D00104009002008000000B83D0010DD
:1010A0004809002000000000A03C00100C000020B7
:1010B00010010000200900201C0000002009002071
:1010C00005110010CD1000106D110010C0467047C2
:1010D000C0467047FEE7FEE7FEE7FEE7FEE7FEE7F5
:1010E000FEE7FEE7FEE7FEE7FEE7FEE7FEE7FEE7D8
:1010F000FEE7FEE7FEE7FEE7FEE7FEE7FEE7FEE7C8
:10110000FEE7FEE780B500AF00F002F8BD4680BD07
:1011100080B582B000AF114B1A68FF231B02134049
:101120001B0A7B600D4B1A68FF2313403B607B68F2
:10113000002B0CD07B681A023B68D3180848191C96
:1011400001F006FF031C5A00064B1A6002E0054B33
:10115000054A1A60BD4602B080BDC046000301408A
:10116000000024F4380900200048E80180B500AFF1
:1011700001F046FD024B181C00F070FBFEE7C04674
:10118000C03B001080B582B000AF194B1B68002B2C
:1011900004D0FA22D200934209D011E0154A164B2E
:1011A000101C191C00F062FC031C7B6009E0114A52
:1011B000124B101C191C00F059FC031C7B6000E052
:1011C000C0460B4B1B685A1C094B1A60084B1A6827
:1011D0000B4B9A4202D9064B00221A607B68002B07
:1011E00003D0044B181C00F0F5FBBD4602B080BDD7
:1011F00020090020C03B0010FF4A000055080000F5
:101200009F0F000080B584B000AFF860B9607A60CD
:1012100001235B42181CBD4604B080BD80B584B07C
:1012200000AFF860B9607A6001235B42181CBD46CC
:1012300004B080BD80B584B000AFF860B9607A605A
:101240000023181CBD4604B080BDC04680B584B0E4
:1012500000AFF860B9607A6001235B42181CBD469C
:1012600004B080BD80B500AF01235B42181CBD46B1
:1012700080BDC04680B582B000AF786039603B6801
:10128000002B02D001235B4201E002235B42181CC9
:10129000BD4602B080BDC04680B582B000AF786068
:1012A00039607A683B689A4202D101235B4201E0CF
:1012B00002235B42181CBD4602B080BD80B582B0DF
:1012C00000AF786001235B42181CBD4602B080BDB0
:1012D00080B586B000AF7860144B7B61144B1B68FF
:1012E000002B08D1124B134A1A60114B1A687B6904
:1012F000D218114B1A600E4B1B683B610C4B1B68DC
:101300001A1C7B68D318073307229343FB600A4BF0
:101310001B68FA689A4201D3002303E0044BFA6881
:101320001A603B69181CBD4606B080BDB836000087
:1013300028090020480900202C09002080B582B02F
:1013400000AF786001235B42181CBD4602B080BD2F
:1013500080B582B000AF786001235B42181CBD46A7
:1013600002B080BD80B582B000AF786039600123E3
:101370005B42181CBD4602B080BDC04680B500AFC0
:1013800001235B42181CBD4680BDC04680B500AF3E
:1013900001235B42181CBD4680BDC04680B582B0AB
:1013A00000AF7860FEE7C04680B500AFBD4680BDA7
:1013B00080B582B000AF786001235B42181CBD4647
:1013C00002B080BD80B582B000AF01237B6001F028
:1013D0005BFD104B181C00F023F8031C7B607B683E
:1013E000002B09D10B4B5B78012B05D1094B181C45
:1013F00000F034FA031C7B60074B074A5169074A27
:101400000A405A61044B044A52695A61BD4602B00F
:1014100080BDC046C03B001000000440FFBFFFFF7E
:10142000B0B584B000AF78600123FB607B68DB6BF4
:101430001B78002B00D056E17B689B6907221A615C
:101440007B68DB7B012B25D17B689B697A6892697D
:101450001168A84A0A401A607B689B697A68926999
:1014600052680C218A435A607B689B697A6892694A
:10147000116878682422825C9004C0221203024022
:101480000A431A607B689B697A68926952680821EE
:101490000A435A607B685B7C012B2AD17A6820233F
:1014A000D35C012B25D07B689B697A6892691168AF
:1014B000914A0A401A607B689B697A689269516810
:1014C0008E4A0A405A607B689B697A689269116803
:1014D0007A68127810068022520402400A431A6089
:1014E0007B689B697A6892695268802189020A4305
:1014F0005A607B689B697A6892695169804A0A40A0
:101500005A617B689B697A6892695169786836226A
:10151000825C101C012210407C683422A25C940280
:101520008022D200224010437C683522A25C140243
:10153000C0229200224002430A435A617A68202363
:10154000D35C012B0DD07B689B697A68127B5100BC
:10155000022211407A6892695269022082430A434A
:101560005A617B689B697A6892695169786821221F
:10157000825C5003C022D20102400A435A617B6858
:101580009B697A68527B111C0F2211407A6892691C
:10159000126A0F2082430A431A627A682023D35CBE
:1015A000012B2CD07B689B697A68927C5105802244
:1015B000920311407A6892695069524A02400A4384
:1015C0005A617B689B697A68D27C91058022D2033C
:1015D00011407A68926950694B4A02400A435A6145
:1015E0007B689B697A68527C510480229202114088
:1015F0007A6892695069414A02400A435A617B689D
:101600009B69796822228A5C111C0F2211407A683A
:101610009269526A0F2082430A435A627B689B692F
:101620007A68127C9A617B689B697A68926A120474
:10163000120C5A637B689B697A6892681204120CD8
:10164000DA637B689A697B689969B023CB582F4924
:101650001943B023D1507A682023D35C012B0FD1DA
:101660007B68181C00F098FF7B68DA697B68D96991
:10167000A423C9587B681B6B1943A423D1500AE0EB
:101680007B689A697B689969A423C9587B681B6B3E
:101690001943A423D1507B685B697A685269116948
:1016A00078683722825C9200012090407C68372263
:1016B000A25C920001320124251C95402A1C104393
:1016C0007C683722A25C920002320124251C9540DE
:1016D0002A1C02430A431A610023FB607B68DB6B10
:1016E00001221A7000E0C046FB68181CBD4604B019
:1016F000B0BDC046FFFFF3E7FFFFCF9EFFFFFDFF3A
:10170000F698FFFFFFFFDFFFFFFFBFFF0F0F000097
:1017100090B589B000AF78600123FB617B68DB6B1B
:101720001B78002B00D191E07B689B6907221A612E
:101730007B689A69B0234849D1507B689A69A42391
:101740000021D1507B685B697A685269916878683A
:101750003722825C0120041C9440221C0A43C021D1
:1017600089000A439A607B689B6900221A607B6843
:101770009B6900225A607B689B6900225A617B68E2
:101780009B6900225A627B689B6900229A617B6890
:101790009B6900221A627B689B690022DA637B687E
:1017A0009B6900225A637A682023D35C012B47D1BE
:1017B0007B68DB6907221A617B68DA69B0232649F6
:1017C000D1507B68DA69A4230021D15080239B008B
:1017D000BB6180235B007B617A683823D35C3B610B
:1017E0007A69BB691343FB607B685B697A685269FD
:1017F00091683A6901209040FA6802430A439A606E
:101800007B68DB6900221A607B68DB6900225A6012
:101810007B68DB6900225A617B68DB6900225A62BF
:101820007B68DB6900229A617B68DB6900221A62AF
:101830007B68DB690022DA637B68DB6900225A631C
:101840007B68DB6B00221A700023FB61FB69181CAC
:10185000BD4609B090BDC0460F0F000090B585B0E1
:1018600000AF78600123FB607B68DB6B1B78012B8A
:1018700005D07B68DB6B1B78032B00D09FE07B6877
:101880009A69B0235149D1507B685B697A68526983
:10189000D16878683722825C0120041C9440221CA5
:1018A0000A43DA607A682023D35C012B0DD17B6870
:1018B0005B697A685269D16878683822825C012055
:1018C000041C9440221C0A43DA607B689B7B002B3B
:1018D00015D17B689B697A689269D26801210A43B5
:1018E000DA607A682023D35C012B61D17B68DB69E5
:1018F0007A68D269D26801210A43DA6058E07B68CD
:101900009B7B012B25D17B689B697A689269116862
:101910002F4A0A401A607B689B697A68926952680C
:1019200003218A435A607B689B697A6892691168CF
:1019300078682322825C1004C022920202400A438B
:101940001A607B689B697A689269526801210A4330
:101950005A607B689B7B012B2AD17A682023D35C59
:10196000012B25D17B68DB697A68D2691168184A36
:101970000A401A607B68DB697A68D2695268032181
:101980008A435A607B68DB697A68D2691168786833
:101990002322825C1004C022920202400A431A6091
:1019A0007B68DB697A68D269526801210A435A6010
:1019B0007B68DB6B02221A700023FB6000E0C046EC
:1019C000FB68181CBD4605B090BDC0460F0F000057
:1019D000FFFFFCF980B586B000AF786001237B6122
:1019E0007B68DB6B1B78022B39D17A683723D35C99
:1019F0003B6180239B00FB607B689B6907221A6127
:101A00007B685B697A68526991683A690120904005
:101A1000FA6802430A439A607A682023D35C012B58
:101A200016D17B68DB6907221A617A683823D35C98
:101A30003B6180239B00FB607B685B697A6852692D
:101A400091683A6901209040FA6802430A439A601B
:101A50007B68DB6B03221A7000237B6100E0C046C9
:101A60007B69181CBD4606B080BDC04680B584B0F9
:101A700000AF786039600123FB607A682023D35C73
:101A8000012B09D17B68DB695B6B1A047B689B695E
:101A90005B6B1343BB6003E07B689B695B6BBB6064
:101AA0007B68DB6B1B78002B1CD07B68DA6A3B6899
:101AB0009A4207D27A682023D35C002B02D10223FA
:101AC000FB600FE03A68BB689A4202D3BB680133FF
:101AD0003B607B681B6C79683A68081C111C98474E
:101AE0000023FB60FB68181CBD4604B080BDC046E7
:101AF00090B587B000AF786039607B687B617B69A7
:101B00009B693A681204120CDA637A693723D35C52
:101B10009B003B613B69FB607B695B697A69526949
:101B20001169FA680120041C9440221C0A431A61BE
:101B3000BD4607B090BDC046B0B588B000AF786074
:101B400039600023FB610023BB617B687B617B699B
:101B50009B695B6B9BB23A68101C191C01F03CFA44
:101B60000B1CFB617B699B695B6B9BB23868191C22
:101B700001F0EEF9031CBB617B699B69FA691204F1
:101B8000120CDA637B69DB69BA691204120CDA633E
:101B90007A693823D35C9B003B617A693723D35C35
:101BA0009B00FB607B695B697A6952691169FA681D
:101BB000012090403A690124251C95402A1C0243CB
:101BC0000A431A61BD4608B0B0BDC04690B585B0A5
:101BD00000AF786039607B68FB60FB689B693A689E
:101BE0001204120CDA63FA683723D35C9B00BB60E3
:101BF000FB685B69FA6852691169BA680120041CC4
:101C00009440221C0A431A61BD4605B090BDC046EF
:101C100080B584B000AF786039600123FB607B68D9
:101C2000DB6B1B78002B19D038680F4901F006FADE
:101C3000031C002B06D13868002101F0EBF9031CCE
:101C4000002B02D00223FB6008E07B685B6C7968A4
:101C50003A68081C111C98470023FB60FB68181C9D
:101C6000BD4604B080BDC0460000C84290B589B0F2
:101C700000AF786039600023FB617B68BB613B6823
:101C80007B611C48796901F027FD031C181C194968
:101C900001F000FA031C7B61BB699B695B6B01333C
:101CA000181C01F013FF031C3B613869796901F0CE
:101CB000E3FB031C181C01F0D5F9031CFB61BB6995
:101CC0009B69FA691204120CDA63BA693723D35C90
:101CD0009B00FB60BB695B69BA6952691169FA686C
:101CE0000120041C9440221C0A431A61BD4609B01D
:101CF00090BDC0460000C842B0B58AB000AF786061
:101D0000396000237B6200233B620023FB617B6818
:101D1000BB613B687B61BB69DB695B6B01337B62E9
:101D2000BB699B695B6B1B041B0C5A1C7B6A53438E
:101D30007B627B6A01337B622C48796901F0CCFCC1
:101D4000031C181C294901F0A5F9031C7B61786A62
:101D500001F0BCFE031C3B613869796901F08CFB22
:101D6000031C181C01F07EF9031C7B62BB699B6994
:101D70005B6B1B041B0C7A6A101C191C01F02CF9FC
:101D80000B1C3B62BB699B693A6A1204120CDA6352
:101D9000BB699B695B6B1B041B0C786A191C01F007
:101DA000D7F8031CFB61BB69DB69FA691204120CEA
:101DB000DA63BA693723D35C9B00FB60BA693823C6
:101DC000D35C9B00BB60BB695B69BA6952691169EE
:101DD000FA6801209040BA680124251C95402A1C0D
:101DE00002430A431A61BD460AB0B0BD0000C842B2
:101DF00090B589B000AF786039600023FB617B68E3
:101E0000BB613B687B611B48796901F065FC031C81
:101E1000181C184901F03EF9031C7B61BB699B69E2
:101E20005B6B181C01F052FE031C3B613869796939
:101E300001F022FB031C181C01F014F9031CFB61C8
:101E4000BB699B69FA691204120CDA63BA69372319
:101E5000D35C9B00FB60BB695B69BA69526911691D
:101E6000FA680120041C9440221C0A431A61BD46F2
:101E700009B090BD0000C84280B586B000AFF860E0
:101E8000B9607A6001237B6100233B61FB68DB6BF7
:101E90001B78002B37D0BB68002B09D0FB68DA6AAF
:101EA0007B689A4207D2FA682023D35C002B02D1C8
:101EB00002237B6127E0FB68DA6ABB689A4207D29B
:101EC000FA682023D35C012B02D002237B611AE045
:101ED000BB683B61FA682023D35C012B04D1FB680B
:101EE000DB693A69120C5A63FB689B693A69120410
:101EF000120C5A63FB681B6CF9687A68081C111C89
:101F0000984700237B617B69181CBD4606B080BDE5
:101F100090B587B000AF7860396001237B61002302
:101F20003B617B68DB6B1B78002B4DD03B68002B43
:101F300002D102237B6147E07B68DA6A3B689A4200
:101F400007D27A682023D35C012B02D002237B6165
:101F50003AE03B683B617A682023D35C012B04D1D3
:101F60007B68DB693A69120C5A637B689B693A6942
:101F70001204120C5A637A683723D35C9B00FB600F
:101F80007B685B697A6852691169FA680120041CF0
:101F90009440221C0A431A617A682023D35C012BE7
:101FA00010D17A683823D35C9B00FB607B685B6947
:101FB0007A6852691169FA680120041C9440221C55
:101FC0000A431A6100237B617B69181CBD4607B078
:101FD00090BDC04680B588B000AFF860B9607A6047
:101FE0000123FB610023BB61FB68DB6B1B78002BCB
:101FF00068D0B868002101F007F8031C002B0DD150
:102000007868334901F01AF8031C002B06D1786870
:10201000002100F0FFFF031C002B02D00223FB6114
:1020200050E0FB685B687B617869B96801F024FA6D
:10203000031C7B612748796901F02CF8031C181CEC
:1020400001F010F8031CBB61FA682023D35C002B5D
:102050001AD1BA69204B9A4202D90223FB6127E0C8
:10206000FA683623D35C002B05D1FB689B69BA69FB
:10207000013A5A6305E0FB689B69BA69013A520864
:102080005A630023FB6113E0FA682023D35C012B21
:1020900006D1BA69104B9A4202D80223FB6107E0CD
:1020A000FA68BB69101C191C00F0A4F8031CFB6142
:1020B000FB69002B06D1FB685B6CF9687A68081C29
:1020C000111C9847FB69181CBD4608B080BDC0466E
:1020D0000000C842286B6E4EFFFF0000B0B588B00C
:1020E00000AF786039600123FB610023BB617B682E
:1020F000DB6B1B78002B00D172E03868002100F008
:1021000083FF031C002B02D00223FB6168E07B6885
:102110005B687B617869396801F0AEF9031C7B610B
:102120003248796900F0B6FF031C181C00F09AFFD2
:10213000031CBB617A682023D35C002B2BD1BA69C6
:102140002B4B9A4202D90223FB6149E07A6836237D
:10215000D35C002B05D17B689B69BA69013A5A634D
:1021600005E07B689B69BA69013A52085A637A684C
:102170003723D35C9B003B617B685B697A6852695B
:1021800011693A690120041C9440221C0A431A6117
:102190000023FB6124E07A68BB69101C191C00F065
:1021A00029F8031CFB61FB69002B19D17A683723DE
:1021B000D35C9B00FB607A683823D35C9B00BB60D8
:1021C0007B685B697A6852691169FA6801209040FE
:1021D000BA680124251C95402A1C02430A431A614F
:1021E000FB69181CBD4608B0B0BDC046286B6E4EDA
:1021F000FFFF000080B588B000AF786039603B68B1
:10220000FB613B1C133300221A700123FB603B6807
:10221000013302D10223FB603AE03A681F4B9A4235
:1022200019D9FB695B08FB613B1C13333A1C133261
:10223000127801321A70FA69194B9A42F1D83B1C94
:1022400013331B780122111C99400B1C013BBB610D
:10225000FB697B6103E03B687B610023BB617A68BB
:102260003623D35C012B05D1BB695B08BB617B695D
:102270005B087B617B689B697A691204120C5A6364
:102280007B68DB69BA691204120C5A630023FB6095
:10229000FB68181CBD4608B080BDC046FFFF0000AB
:1022A000FEFF000080B584B000AF78603960012384
:1022B000FB607B68DB6B1B78012B04D07B68DB6BDE
:1022C0001B78032B11D17B689B693A681204120CAE
:1022D0001A677A682023D35C012B04D17B68DB6901
:1022E0003A68120C1A670023FB60FB68181CBD4695
:1022F00004B080BD80B584B000AF78603960012340
:10230000FB600023BB607B68DB6B1B78002B1DD060
:102310007A682023D35C012B0FD17B68DB699A6834
:1023200001231340BB607B689B699B68BA681A40B5
:1023300001231A403B681A6006E07B689B699A6833
:1023400001231A403B681A600023FB60FB68181CDD
:10235000BD4604B080BDC04680B584B000AF786093
:1023600039600123FB600023BB607B68DB6B1B785B
:10237000002B51D07A682023D35C012B39D17B68A4
:10238000DB691B6F1B04BB607B689B691B6F1B04B5
:102390001A0CBB681A433B689A607B68DB69DA6B8E
:1023A0003B681A603B681A687B689B695B6B5A43A1
:1023B0003B681A603B681A687B689B69DB6BD218C4
:1023C0003B681A607B68DB695B6B5A1C3B685A6030
:1023D0003B685A687B689B695B6B1B041B0C013371
:1023E0005A433B685A603B685B685A1C3B685A60BA
:1023F00010E07B689B691B6F1B041A0C3B689A609A
:102400007B689B69DA6B3B681A607B689B695A6BD7
:102410003B685A600023FB60FB68181CBD4604B093
:1024200080BDC04680B584B000AF786039600123BC
:10243000FB607B68DB6B1B78002B22D07A68202343
:10244000D35C012B16D17B68DB695B6B5A1C3B6844
:102450001A603B681A687B689B695B6B1B041B0CEA
:1024600001335A433B681A603B681B685A1C3B683F
:102470001A6004E07B689B695A6B3B681A60002312
:10248000FB60FB68181CBD4604B080BDB0B586B0CB
:1024900000AF786001237B617B68DB6B1B78002BCE
:1024A00032D07A682023D35C012B1AD17A68372383
:1024B000D35C9B003B617A683823D35C9B00FB6054
:1024C0007B685B697A68526911693A6901209040BA
:1024D000FA680124251C95402A1C02430A431A610C
:1024E00010E07A683723D35C9B00BB607B685B6934
:1024F0007A6852691169BA680120041C9440221C50
:102500000A431A6100237B617B69181CBD4606B033
:10251000B0BDC04680B582B000AF78607B68DB7C20
:10252000012B1AD17B689A697B689969B023CB58D3
:102530008021C9001943B023D1507A682023D35C8D
:10254000012B0AD17B68DA697B68D969B023CB5843
:102550008021C9001943B023D1507B689A697B68F8
:102560009969B023CB58802109011943B023D15078
:102570007A682023D35C012B0AD17B68DA697B68F7
:10258000D969B023CB58802109011943B023D15018
:10259000BD4602B080BDC046B0B582B000AF786025
:1025A0007B68DB6907221A617B68DB697A68926A5B
:1025B000120C5A637B68DB697A689268120CDA63E2
:1025C0007B68DB697A68D2695268802149030A43D3
:1025D0005A607B68DB7B012B25D17B68DB697A68DD
:1025E000D2691168794A0A401A607B68DB697A68A7
:1025F000D26952680C218A435A607B68DB697A6829
:10260000D269116878682422825C9004C022120387
:1026100002400A431A607B68DB697A68D2695268B3
:1026200008210A435A607B685B7C012B25D17B68BB
:10263000DB697A68D2691168654A0A401A607B686A
:10264000DB697A68D2695168624A0A405A607B68DD
:10265000DB697A68D26911687A681278100680227C
:10266000520402400A431A607B68DB697A68D269C7
:102670005268802189020A435A607B68DB697A6864
:10268000D2695169544A0A405A617B68DB697968AA
:1026900036228A5C111C012211407A68127B50009C
:1026A00002220240114378683422825C9002802228
:1026B000D2000240114378683522825C1002C022A9
:1026C000920002400A435A617B68DB697A68D269EA
:1026D000516978682122825C5003C022D2010240F5
:1026E0000A435A617B68DB697A68527B111C0F22AE
:1026F00011407A68D269126A0F2082430A431A6233
:102700007B68DB697A68927C5105802292031140D4
:102710007A68D2695069314A02400A435A617B683B
:10272000DB697A68D27C91058022D20311407A68F5
:10273000D26950692A4A02400A435A617B68DB69C0
:102740007A68527C51048022920211407A68D269E0
:102750005069204A02400A435A617B68DB69796804
:1027600022228A5C111C0F2211407A68D269526AB7
:102770000F2082430A435A627B68DB697A68127CC5
:102780009A617B685B697A68526911697868382256
:10279000825C9200012090407C683822A25C92000A
:1027A00001320124251C95402A1C10437C683822E4
:1027B000A25C920002320124251C95402A1C02438F
:1027C0000A431A61BD4602B0B0BDC046FFFFF3E741
:1027D000FFFFCF9EFFFFFDFFF498FFFFFFFFDFFF2E
:1027E000FFFFBFFF90B585B000AF78600A1CFB1CEF
:1027F0001A700123FB607B68DB6B1B78002B02D116
:102800000123FB6025E07A682023D35C012B0FD1E4
:102810007B68DA697B68D969A423C958FB1C1B78DB
:102820000120041C9C40231C1943A423D1500EE01A
:102830007B689A697B689969A423C958FB1C1B783B
:102840000120041C9C40231C1943A423D1500023C5
:10285000FB60FB68181CBD4605B090BD90B585B007
:1028600000AF78600A1CFB1C1A700123FB607B68B8
:10287000DB6B1B78002B02D10123FB6027E07A6819
:102880002023D35C012B10D17B68DA697B68D9697E
:10289000A423CB58F91C09780120041C8C40211C6E
:1028A000C9431940A423D1500FE07B689A697B6823
:1028B0009969A423CB58F91C09780120041C8C4089
:1028C000211CC9431940A423D1500023FB60FB689D
:1028D000181CBD4605B090BD90B585B000AF7860BE
:1028E0000A1CFB1C1A700123FB607B68DB6B1B78E6
:1028F000002B02D10123FB6025E07A682023D35C02
:10290000012B0FD17B68DA697B68D969B023C9587C
:10291000FB1C1B780120041C9C40231C1943B02382
:10292000D1500EE07B689A697B689969B023C958D9
:10293000FB1C1B780120041C9C40231C1943B02362
:10294000D1500023FB60FB68181CBD4605B090BD4C
:1029500090B585B000AF78600A1CFB1C1A7001238B
:10296000FB607B68DB6B1B78002B02D10123FB60D3
:1029700025E07A682023D35C012B0FD17B68DA69CC
:102980007B68D969AC23C958FB1C1B780120041C47
:102990009C40231C1943AC23D1500EE07B689A69FC
:1029A0007B689969AC23C958FB1C1B780120041C67
:1029B0009C40231C1943AC23D1500023FB60FB68CF
:1029C000181CBD4605B090BD80B586B000AFF8605C
:1029D0007A603B1C0B330A1C1A7001237B61FB6875
:1029E000DB6B1B78002B02D101237B613DE0FA6891
:1029F0002023D35C012B1BD1FB68DA69A023D358B9
:102A00003A1C0B3212780121081C9040021C1A401B
:102A10003B1C0B331B78111CD9400B1C002B03D023
:102A20007B6801221A701EE07B6800221A701AE08F
:102A3000FB689A69A023D3583A1C0B321278012103
:102A4000081C9040021C1A403B1C0B331B78111CC5
:102A5000D9400B1C002B03D07B6801221A7002E0C6
:102A60007B6800221A7000237B617B69181CBD46BD
:102A700006B080BD80B582B000AF021CFB1D1A708D
:102A8000064BFA1D1278111C1F220A400121081C56
:102A90009040021C1A60BD4602B080BD00E100E01B
:102AA000B0B582B000AF021C3960FB1D1A70FB1D6F
:102AB0001B787F2B32D93049FB1D1B781A1C0F2342
:102AC0001340083B98082C4AFB1D1B781C1C0F2345
:102AD0002340083B9B0806339B00D3185B68FA1D14
:102AE0001278141C03222240D200FF24251C95409A
:102AF0002A1CD2431A403B689C01FF231C40FB1D4B
:102B00001B781D1C03232B40DB00251C9D402B1C28
:102B10001A43831D9B00CB185A6029E0174BFA1DFE
:102B2000127852B292081549F81D007840B2800818
:102B3000C03080004158F81D0078041C032020405C
:102B4000C000FF24251C8540281CC043084039686C
:102B50008C01FF210C40F91D09780D1C032129402F
:102B6000C900251C8D40291C0143C0329200D15060
:102B7000BD4602B0B0BDC04600ED00E000E100E09F
:102B800080B582B000AF78607B681B78DBB25BB247
:102B9000181CFFF76FFFBD4602B080BD80B582B044
:102BA00000AF00237B6009E0074B7A689200D3589E
:102BB000181C00F00BF87B6801337B607B68002BEE
:102BC000F2D0BD4602B080BD4009002080B582B081
:102BD00000AF78607B681B78DAB27B685B7852B2B2
:102BE000101C191CFFF75CFF7B68DB78012B03D1FD
:102BF0007B68181CFFF7C4FFBD4602B080BDC0460D
:102C000080B500AF00F028F800F02AF800F03CF999
:102C1000FEF7D8FBFFF7C2FF00F002F8BD4680BD0B
:102C200080B500AF094A0949A823CB5803211943AD
:102C3000A823D150064B064A5169064A0A40A021F2
:102C400009020A435A61BD4680BDC04600010448DE
:102C500000000440FF47FFFF80B500AFBD4680BDC8
:102C600080B500AF0A4BC0225A62C046084B5A6A70
:102C700004231340FAD1074B064A12681A6000F089
:102C800011F8034BC3225A62FEF742FABD4680BDDB
:102C9000000001400003014080B500AF0023181C74
:102CA000BD4680BD80B584B000AF0023FB6000232B
:102CB000BB60184B1A68FF231B0213401B0AFB6002
:102CC0000123BB60134B1B687B607B68FF2293432F
:102CD0007B60104B7A681A600E4B0E4A12680E49E0
:102CE0000A431A60C0460B4B1A688023DB05134069
:102CF000F9D1FA68BB689A4208D0FA68BB689A4270
:102D000002D200F069F801E000F008F8BD4604B016
:102D100080BDC046000301400000F03F80B584B094
:102D200000AF2A4B1A68FF231B0213401B0AFB60EB
:102D30000123BB60BB689A00FB689A4224D2FB68FF
:102D4000032293430433FB60FB689B08FB601F4B2B
:102D50001B687B60FB681B021B041A0C79681C4B08
:102D60000B4013437B60194B7A681A60174B174A64
:102D7000126818490A431A60C046144B1A68802327
:102D8000DB051340F9D11CE0104B1B687B60BB686E
:102D90001B021B041A0C79680D4B0B4013437B601C
:102DA0000A4B7A681A60094B084A126809490A43B3
:102DB0001A60C046054B1A688023DB051340F9D121
:102DC00000E0B7E7BD4604B080BDC0460003014047
:102DD000FF00FFFF0000F03F80B584B000AF274B3D
:102DE0001A68FF231B0213401B0AFB600123BB6010
:102DF000FB689A00BB689A421FD2FB689B00FB608D
:102E00001E4B1B687B60FB681B021B041A0C796855
:102E10001B4B0B4013437B60184B7A681A60174BAF
:102E2000164A126817490A431A60C046134B1A68BB
:102E30008023DB051340F9D11CE0104B1B687B603D
:102E4000BB681B021B041A0C79680D4B0B40134323
:102E50007B600A4B7A681A60084B084A1268094975
:102E60000A431A60C046054B1A688023DB051340ED
:102E7000F9D100E0BCE7BD4604B080BD00030140CD
:102E8000FF00FFFF0000F03F80B582B000AF0023DD
:102E90007B600E4B1B68002B14D1FFF7E1FE002373
:102EA0007B6009E00A4B7A689200D358181C00F046
:102EB00011F87B6801337B607B68002BF2D0034BF9
:102EC00001221A60BD4602B080BDC0463409002010
:102ED0004409002090B583B000AF78607B685B68E0
:102EE000022B23D8174B1A697B689B6813401DD1AE
:102EF000154BC0225A62134B124A126813490A43F7
:102F00001A60104B0F4A11697A6892680120041CFC
:102F10009440221C0A431A61C0460A4B1A68802357
:102F2000DB051340F9D1084BC3225A627B681B684A
:102F30007A681268D268802149000A43DA60BD4687
:102F400003B090BD00030140000001400000F03FCD
:102F5000002934D00123002210B488422CD301244C
:102F60002407A14204D2814202D209011B01F8E7E1
:102F7000E400A14204D2814202D249005B00F8E79A
:102F8000884201D3401A1A434C08A04202D3001BC6
:102F90005C0822438C08A04202D3001B9C082243F9
:102FA000CC08A04202D3001BDC082243002803D037
:102FB0001B0901D00909E3E7101C10BC7047002869
:102FC00001D00020C04307B4024802A1401802907B
:102FD00003BDC046190000000029F0D003B5FFF77B
:102FE000B9FF0EBC4243891A1847C0467047C04615
:102FF0008446081C6146FFE71FB500F0F5F900287C
:1030000001D40021C8421FBD10B500F07DF9404237
:10301000013010BD10B500F0E7F9002801DB0020F9
:1030200010BD012010BDC04610B500F0DDF900282C
:1030300001DD002010BD012010BDC04610B500F01C
:103040008BF9002801DC002010BD012010BDC04616
:1030500010B500F081F9002801DA002010BD012030
:1030600010BDC0469E2110B5C905041CFFF7F0FF36
:10307000002803D1201C00F009FD10BD9E22201C59
:10308000D10500F029FB00F001FD80231C0600198A
:10309000F3E7C046F0B55F4656464D464446F0B4A9
:1030A0004502440083B00E1C6D0A240EC70F002C8D
:1030B00007D1002D00D091E00421012288469246DC
:1030C00009E0FF2C55D08023180400210543ED00B2
:1030D0007F3C88468A46331C58007602D90F760A10
:1030E000000E8B464CD101229446002E00D081E088
:1030F0005B467B406246414601930A430F2A50D902
:10310000201A690181467501A94200D3B3E001226A
:10311000534299441B2400260127621E381C10408C
:103120004B007600002900DAA9E09D4200D8A6E015
:10313000013C002C00DCABE000280CD0191C760010
:103140005B00002901DB9D4201D85B1B3E43013C33
:10315000002C00DC9CE059007200002B01DB8D424A
:1031600001D8491B3A43013C4B0056000029EADADA
:10317000EBE7002D2DD10820022180468A46AAE7E0
:10318000FF2820D08022130400211E438C465B467A
:103190007B4062464146F6007F3801930A430F2A7E
:1031A000AED8564992008A589746019BFF260025C3
:1031B000F0052843DE07304303B03CBC90469946F7
:1031C000A246AB46F0BD331C5A1E934102339C46C7
:1031D0008EE70C22032390469A467CE7281C00F0D9
:1031E000C9FC7622441F5342A5401C1A0020804689
:1031F000824670E7301C00F0BDFC7623411F8E40F4
:103200005A420021101A8C4672E700233C4DFF26DB
:10321000CEE75F46351C01976346022BC5D0032BD2
:1032200063D0012B43D049467F31002935DD0F277C
:103230002F40042F00D004352B0103D5314A4946D5
:1032400015408031FE29B0DCA801450ACEB2019BB1
:10325000AEE700260025ABE78020C1030D4211D068
:103260000E420FD10E4373025D0AFF265B469FE7B5
:1032700001975346D1E7491B1A2401264CE75B1BF3
:103280003E4355E70D436A02550A3B1CFF268FE774
:103290001D1C6B1E9D413543C5E77E2467424A468F
:1032A000B91A1B2908DD019B0026002580E7019D36
:1032B00000262B4000257BE74E469E36281CB54055
:1032C0002B1C5D1EAB41C84003430F251D40042D40
:1032D00000D004335A0103D5019B0126002567E77E
:1032E0009C01650A019B002662E78027FC032543B9
:1032F0006E02750A019BFF265AE7C046183C001073
:10330000FFFF7F00FFFFFFF74302420070B55C0A3A
:10331000C60F130E48024A00450A120EC90FFF2BB2
:1033200005D0FF2A08D0012093420BD070BD0120A8
:10333000002CFBD1FF2AF6D10120002DF6D101206F
:103340009342F3D1AC42F1D18E4203D0002BEDD1A8
:10335000002CEBD10020E9E7F0B5430242004F001A
:10336000C60F48025C0A450A130EC90F3A0EFF2B1E
:1033700026D0FF2A29D0002B0CD160426041844620
:10338000002A0AD0002816D18E4221D0002E14D156
:10339000012014E0002AF7D194466F426F41604645
:1033A000002805D1002FEFD00120002E07D004E027
:1033B0000020002F03D10029EAD101214842F0BDAD
:1033C000002CD6D002225042F9E7002DD3D0F9E7E5
:1033D0009342DBDC04DBAC42D8D80020AC42EED216
:1033E000002EEAD00120EAE7F0B5430242004F0088
:1033F000C60F48025C0A450A130EC90F3A0EFF2B8E
:1034000026D0FF2A28D0002B0FD0002A14D19446B2
:103410006F426F416046002814D00020002F03D176
:1034200000290DD101214842F0BD6042604184462F
:10343000002AEDD00028F3D18E4211D0002EF1D118
:103440000120F1E7002FF7D00120002EECD0E9E7B2
:103450000220002CE8D1D4E70220002DE4D1D2E7ED
:103460009342EBDC04DBAC42E8D80020AC42DBD278
:10347000002ED7D00120D7E7F0B55F4656464D461F
:103480004446F0B44502460083B00F1C6D0A360E68
:10349000C40F002E06D1002D70D1042101228846D0
:1034A000924609E0FF2E43D08023180400210543F3
:1034B000ED007F3E88468A46381C43007F02C10FDC
:1034C0007F0A1B0E8B463AD10121002F62D158464C
:1034D0006040424601900A430F2A3FD92C04F0185D
:1034E000260C3B041A0C311C51433F0C2D0C7E431F
:1034F0006A438146080C36182C1CB3187C439A4248
:1035000000D99AE009041D04080C2E18B5011B0C03
:10351000691E8D41B20EE7181543BC0125432B01EE
:103520004BD50120284001216D088944054344E022
:10353000002D1ED10820022180468A46BCE7FF2BC1
:1035400012D08022100407435846002160404246B2
:10355000FF007F3B01900A430F2ABFD890005B4ACF
:103560008446624410688746391C4A1E91410231E4
:10357000ADE70C22032390469A469DE7281C00F0F5
:10358000F9FA7622461F5342B5401E1A00208046A3
:10359000824691E7381C00F0EDFA7621431F4A423B
:1035A0009F400021131A92E70194514602292CD022
:1035B000032900D180E0012948D04E467F36002EF5
:1035C00051DD0F242C40042C00D004352A0103D5F2
:1035D0003F494E460D408036FE2E3DDD019B0124C5
:1035E0001C40FF210025C805E2072843104303B013
:1035F0003CBC90469946A246AB46F0BD0024354DF2
:10360000FF21F0E751460229D2D1019D01242C402F
:10361000FF210025E7E75E463D1C0196C6E73D1CFD
:10362000C4E78026F3031D420BD01F4209D11F437C
:103630007A02550A5C46FF21D5E780225702E41939
:1036400060E71D436F027D0AFF21CCE7019B002547
:103650001940CCB20021C6E70198AD0101246D0AE2
:10366000F1B20440BFE77E2673424A469F1A1B2FE1
:1036700005DD019D01242C4000210025B3E74946CA
:103680009E312C1C8D402E1CFC40751EAE412643E5
:103690000F203040042800D00436700105D5019F6A
:1036A00001243C40012100259DE7019AB30101243A
:1036B0005D0A1440002196E78022D00305436C0286
:1036C0000199650A01240C40FF218CE7583C001049
:1036D000FFFFFFF7FFFF7F00F8B5430245004F02F1
:1036E0004C00C20F980984462D0E200EC90FBF0949
:1036F000FF2854D0012671408A423BD02C1A002C5E
:1037000000DC89E0002825D1002F4BD16E1C2C1C39
:103710006346151C0F221A40042A00D00433802768
:10372000F904012219402A40002906D0FF2E00D1B9
:1037300081E0B14D341C2B400136F6B2DD08012E7C
:1037400062DD6B025D0AE4B2E4052543281CD20762
:103750001043F8BDFF2D51D08021CB041F4301261B
:103760001B2C70DD67462C1CBB1B151C580122D47A
:10377000661CCFE72E1A002E76DD002832D0FF2DF2
:103780003CD08024E1040F4301231B2E00DCD1E058
:1037900063442C1C58017AD4661C151CBAE7002F10
:1037A000AAD1A7E7013C002C6DD163462C1CDB1B82
:1037B000151C5801DCD59A019609301C00F0DAF985
:1037C00005388640844239DC001B1F231A1A331C3B
:1037D000311C441C9340E1405E1EB3410B43012663
:1037E000002497E7002F00D190E7013E002E03D17F
:1037F00064463B192C1CCDE7FF2DC5D1151C80223A
:1038000063465600FF2485E7002D9CD0002C28D06D
:103810008020C7033D4394E7002C45D16B1CD8B2F0
:10382000012800DC90E06446E61B730157D53E1B7F
:103830002C1C0D1CC1E7FF24002585E76E4B241AC4
:103840003340661C66E7381C2021E0400C1BA74073
:103850003E1C771EBE41064367462C1CBB1B151C35
:1038600084E769024D0A6FE7002E79D16C1CE0B243
:1038700001284BDDFF2C00D198E061467F18AE1C7B
:103880007B08151C46E7FF2D00D068E7B6E7671CEC
:10389000FF2F36D058480121194003405B08A61C71
:1038A0000B433C1C151C35E76642002D1ED0FF283B
:1038B0006FD080256246EB041A43944601251B2EE7
:1038C00009DC62462023F24064469E1BB440251C5E
:1038D0006C1EA54115437B1B041C0D1C69E7002EC3
:1038E0000CD1002201260423002426E76446002C84
:1038F00055D1461C3B1C041C0D1C0BE72C1C151C35
:103900005BE780235E00FF24042316E7002D00D030
:103910008DE06546002D00D1ADE0002F00D181E0A3
:103920007B195C0100D47EE0334F151C3B4002261E
:103930000124EFE6381C2023F0409E1BB7403B1CBF
:103940005F1EBB41034323E7002D15D16546002DC3
:1039500047D1002FC5D03B1C0D1C01260024D9E601
:103960007642002D26D16546002D00D07DE0461C14
:103970003B1C041C151CCDE66546002D40D1002FD4
:1039800007D1802100224E001C4BFF24D5E6FF28E2
:1039900094D180203B1C0D1C4600FF24BAE6013E5A
:1039A000002EF4D13B1B0D1C041C02E780256E0089
:1039B0000423C2E6FF2852D080246146E304194361
:1039C0008C4601231B2E09DC20216446F440654609
:1039D0008E1BB5402B1C591E8B412343DB19041C45
:1039E000D8E6002F1ED0EB1B58014BD57B1B0126C0
:1039F0000D1C00248EE6C046FFFFFFFBFCFFFF030B
:103A0000002F00D1FAE68020EB08C403234237D010
:103A1000FF08274234D13B1C0D1C8022DB005600DE
:103A2000FF2477E66346151C0126002472E66446EF
:103A3000002C14D0002F00D1E0E68023E608D80344
:103A4000311C064203D0F908014200D0311C151C7C
:103A50008022CB005600FF245CE6FF28B1D18020F5
:103A60003B1C151C4600FF2454E6013E002EF4D1F9
:103A70007B19041C8EE63B1C151C0126002449E61C
:103A8000151CCAE7002B00D12BE7CCE7430242000C
:103A9000590A130EC20F00207E2B0DDD9D2B0CDC6E
:103AA000802000040143952B0ADC9620C31AD940DC
:103AB0004842002A00D1081C704703495018FBE710
:103AC000963B9940F4E7C046FFFFFF7F10B5041E08
:103AD00034D000F04FF89E231B1A962B07DC0838D1
:103AE00084406402610ADBB2D805084310BD992BFB
:103AF0000ADD021C1B32211C91400A1C511E8A4106
:103B00000521091ACC40144305281ADC184A0F2154
:103B100022400C40042C00D00432510105D59F24D2
:103B2000231AFF2B21D012480240591CCCB2D208D4
:103B3000012C09DD5002410ADBB2D5E70023002148
:103B4000D2E7421F9440E1E7002A0BD0002B06D0B9
:103B50008021CC0322435202510ADBB2C4E7500257
:103B6000410AC1E7DBB20021BEE7FF230021BBE72A
:103B7000FFFFFFFB1C2101231B04984201D3000C13
:103B800010391B0A984201D3000A08391B099842D0
:103B900001D30009043902A2105C40187047C046E6
:103BA0000403020201010101000000000000000006
:103BB00068D4FF7F0100000090D4FF7F0100000067
:103BC000010000000000FA41AA29000000000000E6
:103BD00000000100000004480001044800010448FE
:103BE000000000000000000054530000FFFF000030
:103BF000010000000000000000000000300900206B
:103C0000F11A00106D1C0010180300010000044898
:103C1000000000000200000000310010AA31001076
:103C20005232001012320010523200100A320010CC
:103C30005232001012320010AA310010AA310010C6
:103C40000A32001012320010703200107032001070
:103C50007032001058320010DC3400101E36001094
:103C60001E36001016360010043600100436001000
:103C7000FC3500101636001004360010FC3500101C
:103C80000436001016360010A8350010A8350010B4
:083C9000A835001022360010D7
:103CA0002C488746000000000000000000000000D3
:103CB0000000000000000000000000000000000004
:103CC0002548874600000000000000002348874682
:103CD0002348874623488746234887462348874604
:103CE00023488746234887462348874623488746F4
:103CF0000000000000000000214887462148874658
:103D000021488746214887462148874621488746DB
:103D10002148874621488746000000000000000037
:103D200000000000000000001D4887461D4887462F
:103D30001D4887461D48874600000000000000001F
:103D40000000000000000000000000000000000073
:103D500000000000D7100010D9100010DB10001078
:103D6000DD100010DF100010E1100010E310001053
:103D7000E5100010E7100010E9100010EB10001023
:103D8000F9100010FB100010FD100010FF100010C3
:103D90000111001003110010ED100010EF100010C1
:103DA000F1100010F3100010F51000108511001034
:083DB000083C00100C3C00105F
:0400000510001019BE
:00000001FF
