:020000041000EA
:101000002009002019100010D5100010D710001072
:1010100000000080000000800248854602488047AA
:1010200012E0000020090020D1100010002A0AD090
:10103000042A00D20422920803680B60013A02D00D
:1010400004300431F8E7704711481249124AFFF79B
:10105000EDFF12481249134AFFF7E8FF12481349FF
:10106000134AFFF7E3FF13481349002906D0890804
:1010700000220260013901D00430FAE70F488546AA
:101080000F4880470F488047002000210E4A9746AE
:10109000101A00105009002010000000201A001043
:1010A0006009002000000000001900100C00002062
:1010B0001001000020090020240000002009002069
:1010C0003D110010CD10001045110010C0467047B2
:1010D000C0467047FEE7FEE7FEE7FEE7FEE7FEE7F5
:1010E000FEE7FEE7FEE7FEE7FEE7FEE7FEE7FEE7D8
:1010F000FEE7FEE7FEE7FEE7FEE7FEE7FEE7FEE7C8
:10110000FEE7FEE7094A10B51368094C1804030E00
:10111000116808D01802CBB2C118064800F0FCFADA
:101120004100216001E0044A226010BD000301403B
:1011300040090020000024F40048E80108B5FFF74A
:10114000E1FF08BDF7B500F0BDFA304B304A5969F0
:10115000C0240A405A6158692502054320265D6172
:101160005E605F692B498022394059615869540398
:1011700004435C611D6C8026F7042F431F645A6A88
:10118000254AF8205169102581435161546980270F
:101190002C435461166CF90231431164526A1F4D9D
:1011A000D1221601A8591E4904242043A8510D68D4
:1011B0000F790195002D01DC01220192896800223E
:1011C0000C1C184E0134B44207D11748824202DC8D
:1011D00001320A2A01DD20BF0022642001385E6A44
:1011E0000028FBD1661AAE42EBDB002F07D10E4F71
:1011F000BA4202DC0132012A02DD202401E0021C95
:101200000A4C01985C6009180027D9E700000440E7
:10121000FF07FFFFFFFF07FF0001044000E000E0C1
:1012200020090020FFFF0000FEFF0000200020003A
:1012300070B50C4C237926680433980081590A064E
:101240000FD5094D0122AB682A710A21D80000F0A0
:10125000B1FA28600020A8606168301CA26800F024
:1012600025FA70BDE81800102009002038B5094C97
:10127000E368002B09D125690721281C00F090FAAA
:10128000013189000135E1602561E0680138E060E5
:1012900038BDC0462009002001204042704701208F
:1012A00040427047002070470120404270470120B3
:1012B0004042704748424841C0437047401A431E6D
:1012C0009841C04370470120404270470A4B1A685A
:1012D000002A04D1094A0A491A6052185A601A6849
:1012E000D11D0818072188435968884201D2186027
:1012F00000E00022101C7047340900206009002023
:10130000A036000001204042704701204042704753
:101310000120404270470120404270470120404276
:101320007047FEE77047012040427047F0B51C4B04
:101330001B681A785D7850B2AD01002814DA0F21CD
:10134000114008398808174C8600032037190240DD
:10135000FF2479688240261C96402C40B14394407B
:101360000D1C25437D6010E0840803270E49C0341E
:10137000A0003A40FF24BA404658271C9740BE437D
:101380002C409440321C22434250DA78012A05D185
:101390001F781F233B4004499A400A60F0BDC046B5
:1013A0005009002018ED00E000E100E0494B30B5A5
:1013B0001B68D9695A78012903D15C68186C94407C
:1013C0004460DD68012D05D1186C0224456F9440FE
:1013D0002C434467012923D1032A05D81C6CD20071
:1013E00021690332586A49E0151F032D05D81A6C8C
:1013F000ED00506903355B6A4DE0141C083C032C7A
:1014000005D81D6CE400A8690334596A51E00C3A10
:10141000032A5DD8196CD200C86903325B6A54E0B4
:10142000002955D1196A01290FD1072A04D81D6C4A
:10143000996B286C08430EE0141C083C072C22D83A
:101440001D6CD86B696C014316E0072A0CD81D6C23
:10145000996B286C88432864032A14D81C6CD2002A
:1014600021690332586909E0101C083807280AD896
:101470001D6CDC6B696CA143696404E09040021C44
:101480000A43226124E0151F032D09D81A6CED00D0
:1014900050695B690335AB401D1C0543556117E07E
:1014A000141C083C032C08D81D6CE400A869596979
:1014B0000334A1400143A9610AE00C3A032A07D88A
:1014C000196CD200C8695B69033293400343CB6156
:1014D00030BDC0465409002084B00393109B009097
:1014E000019102926946586A4A780123D040184017
:1014F00004B0704784B010B5040A029004920593BA
:10150000E0B2129A012383400391536010BC08BCDF
:1015100004B0184784B010B5040A059380230290E4
:101520000391E0B25902129C81400492616010BCA8
:1015300008BC04B0184784B010B50492159A040A88
:10154000029005930391E0B2129B002A01D001247E
:1015500001E080214C0284405C6010BC08BC04B0F7
:101560001847000084B010B5040A0593054B02909B
:101570000492E0B2129A83400391536010BC08BCFD
:1015800004B0184701000100704770478168426845
:101590000368C06830B508320D0130210D4092005B
:1015A00081000420D458014029432143D15030BD4B
:1015B00008B5024B1868FFF7E9FF08BD580900207D
:1015C000021C036810B50F2003290AD8002B08D08D
:1015D0005068032408308200D058A0430143D15002
:1015E000012010BD1FB5041C0090081C083001919B
:1015F000810002920A5903931307D80F04B010BD5B
:10160000002807D04268036808329200D1580420AD
:101610000143D1507047002807D042680368083260
:101620009200D15804208143D150704710B5002852
:101630000AD04268036808329200D4583020090169
:10164000014084432143D15010BD70B502794579E2
:1016500081790368022604326D0092003540B14062
:101660000426D458314029432143C4790825E40095
:101670002C402143047A2502C024A4002C40457A42
:1016800021438024AD02E4002C40807A2143802451
:10169000C502B4402C402143D15070BD08B5024B67
:1016A0001868FFF7D2FF08BD5C0900201FB5029142
:1016B000C9B204318C0023580392802293430190D5
:1016C00023501FBD08B500F01FF8FFF771FFFFF7AB
:1016D0006DFEFFF72BFEFFF7E1FF00F001F808BDFC
:1016E000084B302219681020914301431960596951
:1016F0000120014359615969702081430A435A61AD
:101700007047C04600060140024B20211A6E8A43F2
:101710001A66704700020440002934D001230022D9
:1017200010B488422CD301242407A14204D2814260
:1017300002D209011B01F8E7E400A14204D2814270
:1017400002D249005B00F8E7884201D3401A1A43ED
:101750004C08A04202D3001B5C0822438C08A04224
:1017600002D3001B9C082243CC08A04202D3001BDA
:10177000DC082243002803D01B0901D00909E3E754
:10178000101C10BC7047002801D00020C04307B4D3
:10179000024802A14018029003BDC046D9000000D3
:1017A0000029F0D003B5FFF7B9FF0EBC4243891AF8
:1017B0001847C046002941D010B4041C4C40A44630
:1017C00001230022002900D54942002800D54042CB
:1017D00088422CD301242407A14204D2814202D2A0
:1017E00009011B01F8E7E400A14204D2814202D2C0
:1017F00049005B00F8E7884201D3401A1A434C08BD
:10180000A04202D3001B5C0822438C08A04202D3F2
:10181000001B9C082243CC08A04202D3001BDC081A
:101820002243002803D01B0901D00909E3E7101C5B
:101830006446002C00D5404210BC7047002806D0FA
:1018400003DB0020C043400801E08020000607B40D
:10185000024802A14018029003BDC04619000000D2
:101860000029EBD003B5FFF7A7FF0EBC4243891A4E
:081870001847C0467047C0464E
:10187800A0F7FF7F01000000C8F7FF7F010000000C
:10188800060300010205000000000000000000003F
:10189800000000000000000004000000000000003C
:1018A800000000000100000000000000000000002F
:1018B80000000000000000000000000000004000E0
:1018C80000000000000204400000000000000000CA
:1018D80000060140030000000100000000000000B5
:0C18E800000601400101000100000000AA
:101900002C48874600000000000000000000000096
:1019100000000000000000000000000000000000C7
:101920002548874600000000000000002348874645
:1019300023488746234887462348874623488746C7
:1019400023488746234887462348874623488746B7
:10195000000000000000000021488746214887461B
:10196000214887462148874621488746214887469F
:1019700021488746214887460000000000000000FB
:1019800000000000000000001D4887461D488746F3
:101990001D4887461D4887460000000000000000E3
:1019A0000000000000000000000000000000000037
:1019B00000000000D7100010D9100010DB1000103C
:1019C000DD100010DF100010E1100010E310001017
:1019D000E5100010E7100010E9100010311200109F
:1019E000F9100010FB100010FD100010FF10001087
:1019F0000111001003110010ED100010EF10001085
:101A0000F1100010F3100010F5100010F710001086
:101A1000881800108C180010D8180010E818001052
:0400000510001019BE
:00000001FF
