:020000041000EA
:101000002009002019100010D5100010D710001072
:1010100000000080000000800248854602488047AA
:1010200012E0000020090020D1100010002A0AD090
:10103000042A00D20422920803680B60013A02D00D
:1010400004300431F8E7704711481249124AFFF79B
:10105000EDFF12481249134AFFF7E8FF12481349FF
:10106000134AFFF7E3FF13481349002906D0890804
:1010700000220260013901D00430FAE70F488546AA
:101080000F4880470F488047002000210E4A9746AE
:101090002016001040090020040000002416001053
:1010A0004409002000000000101500100C00002072
:1010B0001001000020090020180000002009002075
:1010C0003D110010CD10001045110010C0467047B2
:1010D000C0467047FEE7FEE7FEE7FEE7FEE7FEE7F5
:1010E000FEE7FEE7FEE7FEE7FEE7FEE7FEE7FEE7D8
:1010F000FEE7FEE7FEE7FEE7FEE7FEE7FEE7FEE7C8
:10110000FEE7FEE7094A10B51368094C1804030E00
:10111000116808D01802CBB2C118064800F03AF99D
:101120004100216001E0044A226010BD000301403B
:1011300034090020000024F40048E80108B5FFF756
:10114000E1FF08BDF0B5394D85B000F019F96A69C5
:10115000374BC02113406B6168690C0204432026A1
:101160006C616E606F69334A80233A406A616869D6
:101170005903014369612C6C8026F7042E482743EC
:101180002F646B6A4369F8229343436141691024D9
:1011900021434161066C8027FB0233430364436AA9
:1011A0006A6A402002400020041C031C029084460E
:1011B000002101330134642701916E6A760603D55C
:1011C000019E0136019600E00131013F002FF4D16C
:1011D00000290BD0002A0DD0174A5810576AFE0676
:1011E0001DD4D8000A2100F023F918E0019F002F38
:1011F00000D001228442DBDB6446002C0DD1029931
:10120000012903D120266E606446D1E701240B4EEC
:10121000029400246E60A446CAE70024F7E7002386
:101220001A1C8442F9DA01218C46C1E7000004400F
:10123000FF07FFFFFFFF07FF000104402000200021
:1012400038B5094C2368002B09D165680721281C93
:1012500000F0E4F801318900013521606560206803
:101260000138206038BDC0462009002001204042DE
:1012700070470120404270470020704701204042E3
:10128000704701204042704748424841C043704780
:10129000401A431E9841C0437047012040427047A6
:1012A0000A4B1A68002A04D1094A0A491A605218DE
:1012B0005A601A68D11D0818072188435968884266
:1012C00001D2186000E00022101C7047280900209D
:1012D00048090020B8360000012040427047012034
:1012E0004042704701204042704701204042704711
:1012F000012040427047FEE770470120404270479E
:10130000F0B51C4B1B681A785D7850B2AD0100280F
:1013100014DA0F21114008398808174C8600032081
:1013200037190240FF2479688240261C96402C40E1
:10133000B14394400D1C25437D6010E084080327D1
:101340000E49C034A0003A40FF24BA404658271C3A
:101350009740BE432C409440321C22434250DA78DE
:10136000012A05D11F781F233B4004499A400A6097
:10137000F0BDC0464009002018ED00E000E100E0AB
:1013800008B500F006F8FFF7BBFF00F001F808BD54
:1013900070477047002934D00123002210B48842DE
:1013A0002CD301242407A14204D2814202D2090194
:1013B0001B01F8E7E400A14204D2814202D24900B5
:1013C0005B00F8E7884201D3401A1A434C08A04258
:1013D00002D3001B5C0822438C08A04202D3001BEE
:1013E0009C082243CC08A04202D3001BDC08224305
:1013F000002803D01B0901D00909E3E7101C10BC29
:101400007047002801D00020C04307B4024802A161
:101410004018029003BDC046D90000000029F0D05A
:1014200003B5FFF7B9FF0EBC4243891A1847C046FF
:10143000002941D010B4041C4C40A44601230022D2
:10144000002900D54942002800D5404288422CD3CB
:1014500001242407A14204D2814202D209011B01C6
:10146000F8E7E400A14204D2814202D249005B00C5
:10147000F8E7884201D3401A1A434C08A04202D32D
:10148000001B5C0822438C08A04202D3001B9C086E
:101490002243CC08A04202D3001BDC0822430028D0
:1014A00003D01B0901D00909E3E7101C6446002C96
:1014B00000D5404210BC7047002806D003DB002056
:1014C000C043400801E08020000607B4024802A1A2
:1014D0004018029003BDC046190000000029EBD05F
:1014E00003B5FFF7A7FF0EBC4243891A1847C04651
:0414F0007047C0463B
:1014F40024FBFF7F010000004CFBFF7F0100000084
:041504001A030000C6
:101510002C4887460000000000000000000000008A
:1015200000000000000000000000000000000000BB
:101530002548874600000000000000002348874639
:1015400023488746234887462348874623488746BB
:1015500023488746234887462348874623488746AB
:10156000000000000000000021488746214887460F
:101570002148874621488746214887462148874693
:1015800021488746214887460000000000000000EF
:1015900000000000000000001D4887461D488746E7
:1015A0001D4887461D4887460000000000000000D7
:1015B000000000000000000000000000000000002B
:1015C00000000000D7100010D9100010DB10001030
:1015D000DD100010DF100010E1100010E31000100B
:1015E000E5100010E7100010E9100010EB100010DB
:1015F000F9100010FB100010FD100010FF1000107B
:101600000111001003110010ED100010EF10001078
:10161000F1100010F3100010F5100010F71000107A
:04162000041500109D
:0400000510001019BE
:00000001FF
